{"contracts/zkOTPWallet.sol":{"zkOTPWallet":{"abi":[{"inputs":[{"internalType":"address","name":"_owner","type":"address"},{"internalType":"address","name":"_admin","type":"address"},{"internalType":"address","name":"_verifier","type":"address"}],"stateMutability":"nonpayable","type":"constructor"},{"anonymous":false,"inputs":[{"indexed":true,"internalType":"address","name":"oldAdmin","type":"address"},{"indexed":true,"internalType":"address","name":"newAdmin","type":"address"}],"name":"AdminChanged","type":"event"},{"anonymous":false,"inputs":[{"indexed":true,"internalType":"uint256","name":"oldHashedSecretConfig","type":"uint256"},{"indexed":true,"internalType":"uint256","name":"newHashedSecretConfig","type":"uint256"}],"name":"HashedSecretConfigChanged","type":"event"},{"anonymous":false,"inputs":[{"indexed":true,"internalType":"address","name":"oldOwner","type":"address"},{"indexed":true,"internalType":"address","name":"newOwner","type":"address"}],"name":"OwnerChanged","type":"event"},{"inputs":[],"name":"admin","outputs":[{"internalType":"address","name":"","type":"address"}],"stateMutability":"view","type":"function"},{"inputs":[{"internalType":"address","name":"_to","type":"address"},{"internalType":"uint256","name":"_value","type":"uint256"},{"internalType":"bytes","name":"_data","type":"bytes"},{"internalType":"uint256[2]","name":"a","type":"uint256[2]"},{"internalType":"uint256[2][2]","name":"b","type":"uint256[2][2]"},{"internalType":"uint256[2]","name":"c","type":"uint256[2]"},{"internalType":"uint256[5]","name":"input","type":"uint256[5]"}],"name":"execute","outputs":[{"internalType":"bytes","name":"","type":"bytes"}],"stateMutability":"nonpayable","type":"function"},{"inputs":[],"name":"owner","outputs":[{"internalType":"address","name":"","type":"address"}],"stateMutability":"view","type":"function"},{"inputs":[{"internalType":"address","name":"_newAdmin","type":"address"}],"name":"setAdmin","outputs":[],"stateMutability":"nonpayable","type":"function"},{"inputs":[{"internalType":"uint256","name":"_hashedSecret","type":"uint256"}],"name":"setHashedSecretConfig","outputs":[],"stateMutability":"nonpayable","type":"function"},{"inputs":[{"internalType":"address","name":"_newOwner","type":"address"}],"name":"setOwner","outputs":[],"stateMutability":"nonpayable","type":"function"},{"inputs":[{"internalType":"uint256","name":"","type":"uint256"}],"name":"usedNonces","outputs":[{"internalType":"bool","name":"","type":"bool"}],"stateMutability":"view","type":"function"},{"inputs":[],"name":"verifier","outputs":[{"internalType":"contract IVerifier","name":"","type":"address"}],"stateMutability":"view","type":"function"},{"stateMutability":"payable","type":"receive"}],"evm":{"bytecode":{"linkReferences":{},"object":"60803461015657601f610a5938819003918201601f191683019291906001600160401b0384118385101761015b5781606092849260409687528339810103126101565761004b81610171565b906100638361005c60208401610171565b9201610171565b916001600160a01b039081169182156101225781169283156100ee57169182156100b75760018060a01b0319918260005416176000558160015416176001556002541617600255516108d390816101868239f35b835162461bcd60e51b815260206004820152601060248201526f24b73b30b634b2103b32b934b334b2b960811b6044820152606490fd5b845162461bcd60e51b815260206004820152600d60248201526c24b73b30b634b21030b236b4b760991b6044820152606490fd5b845162461bcd60e51b815260206004820152600d60248201526c24b73b30b634b21037bbb732b960991b6044820152606490fd5b600080fd5b634e487b7160e01b600052604160045260246000fd5b51906001600160a01b03821682036101565756fe6080604052600436101561001b575b361561001957600080fd5b005b60003560e01c80630de6b2081461079457806313af4035146106e85780632b7ac3f3146106bf5780636717e41c1461068e578063704b6c02146106165780638d80c34c146100cf5780638da5cb5b146100a65763f851a4400361000e57346100a15760003660031901126100a1576001546040516001600160a01b039091168152602090f35b600080fd5b346100a15760003660031901126100a1576000546040516001600160a01b039091168152602090f35b346100a1576102003660031901126100a1576100e96107e9565b67ffffffffffffffff604435116100a1573660236044350112156100a15767ffffffffffffffff60443560040135116100a157366024604435600401356044350101116100a15736608312156100a15760405190610146826107ff565b60a4823682116100a1576064905b8282106106065750503660c312156100a15760405190610173826107ff565b819036610124116100a157905b61012482106105b55750503661014312156100a157604051906101a2826107ff565b81610164923684116100a157610124905b8482106105a55750503661018312156100a1576040519260a0840184811067ffffffffffffffff82111761040a5760405283610204913683116100a157905b8282106105955750506002546040516334baeab960e01b81529687946001600160a01b0390921693925061022a906004860190610875565b6000604485015b6002821061056f5750505061024a9060c4840190610875565b60008361010484015b6005831061055557505050816101a460209687935afa90811561054957600091610513575b50156104db57805160806060830151920151806000526004855260ff604060002054166104a157600052600484526040600020600160ff19825416179055600354146104645760405190838201906bffffffffffffffffffffffff198460601b16825260243591826034850152602460443501936044356004013585605483013761031c60548260443560040135810160008382015203603481018452018261081b565b51902003610428579160009291839260405191604435600401359083378160443560040135810185815203925af13d15610420573d9067ffffffffffffffff821161040a5760405191610378601f8201601f191685018461081b565b82523d60008484013e5b156103d757604051828193825282519081818401526000935b8285106103be575050604092506000838284010152601f80199101168101030190f35b848101820151868601604001529381019385935061039b565b60405162461bcd60e51b815260048101839052600b60248201526a10d85b1b0819985a5b195960aa1b6044820152606490fd5b634e487b7160e01b600052604160045260246000fd5b606090610382565b60405162461bcd60e51b8152600481018590526014602482015273082c6e8d2dedc40d0c2e6d040dad2e6dac2e8c6d60631b6044820152606490fd5b60405162461bcd60e51b8152600481018490526015602482015274125b9d985b1a59081a185cda1959081cd958dc995d605a1b6044820152606490fd5b60405162461bcd60e51b8152600481018690526012602482015271139bdb98d948185b1c9958591e481d5cd95960721b6044820152606490fd5b60405162461bcd60e51b815260048101849052601060248201526f24b73b30b634b2102d2590383937b7b360811b6044820152606490fd5b90508381813d8311610542575b61052a818361081b565b810103126100a1575180151581036100a15784610278565b503d610520565b6040513d6000823e3d90fd5b815181528794506001929092019160209182019101610253565b82939495506040816105876020936001959651610875565b019301910187949392610231565b81358152602091820191016101f2565b81358152602091820191016101b3565b36601f830112156100a1576040516105cc816107ff565b80604084013681116100a15784915b8183106105f657505050816020916040935201910190610180565b82358152602092830192016105db565b8135815260209182019101610154565b346100a15760203660031901126100a15761062f6107e9565b6000546001600160a01b0390610648908216331461083d565b80600154921691826bffffffffffffffffffffffff60a01b821617600155167f7e644d79422f17c01e4894b5f4f588d331ebfa28653d42ae832dc59e38c9798f600080a3005b346100a15760203660031901126100a1576004356000526004602052602060ff604060002054166040519015158152f35b346100a15760003660031901126100a1576002546040516001600160a01b039091168152602090f35b346100a15760203660031901126100a1576107016107e9565b600054906001600160a01b038083169161071c33841461083d565b1691821561075b576001600160a01b031916821760009081557fb532073b38c83145e3e5135377a08bf9aab55bc0fd7c1179cd4fb995d2a5159c9080a3005b60405162461bcd60e51b815260206004820152601160248201527024b73b30b634b2103732bb9037bbb732b960791b6044820152606490fd5b346100a15760203660031901126100a1576004356107bd60018060a01b0360005416331461083d565b80600355807f5ec3e21b18a81bdd0ae6a71042f3769f130c447e557fdd94d45ac42ad537a773600080a3005b600435906001600160a01b03821682036100a157565b6040810190811067ffffffffffffffff82111761040a57604052565b90601f8019910116810190811067ffffffffffffffff82111761040a57604052565b1561084457565b60405162461bcd60e51b81526020600482015260096024820152682737ba1037bbb732b960b91b6044820152606490fd5b6000915b6002831061088657505050565b60019082518152602080910192019201919061087956fea26469706673582212205a6150fcc5259c43096d4806c1e4b2f0aa524c578af6cbe3da02843c7f627cfb64736f6c63430008110033","opcodes":"PUSH1 0x80 CALLVALUE PUSH2 0x156 JUMPI PUSH1 0x1F PUSH2 0xA59 CODESIZE DUP2 SWAP1 SUB SWAP2 DUP3 ADD PUSH1 0x1F NOT AND DUP4 ADD SWAP3 SWAP2 SWAP1 PUSH1 0x1 PUSH1 0x1 PUSH1 0x40 SHL SUB DUP5 GT DUP4 DUP6 LT OR PUSH2 0x15B JUMPI DUP2 PUSH1 0x60 SWAP3 DUP5 SWAP3 PUSH1 0x40 SWAP7 DUP8 MSTORE DUP4 CODECOPY DUP2 ADD SUB SLT PUSH2 0x156 JUMPI PUSH2 0x4B DUP2 PUSH2 0x171 JUMP JUMPDEST SWAP1 PUSH2 0x63 DUP4 PUSH2 0x5C PUSH1 0x20 DUP5 ADD PUSH2 0x171 JUMP JUMPDEST SWAP3 ADD PUSH2 0x171 JUMP JUMPDEST SWAP2 PUSH1 0x1 PUSH1 0x1 PUSH1 0xA0 SHL SUB SWAP1 DUP2 AND SWAP2 DUP3 ISZERO PUSH2 0x122 JUMPI DUP2 AND SWAP3 DUP4 ISZERO PUSH2 0xEE JUMPI AND SWAP2 DUP3 ISZERO PUSH2 0xB7 JUMPI PUSH1 0x1 DUP1 PUSH1 0xA0 SHL SUB NOT SWAP2 DUP3 PUSH1 0x0 SLOAD AND OR PUSH1 0x0 SSTORE DUP2 PUSH1 0x1 SLOAD AND OR PUSH1 0x1 SSTORE PUSH1 0x2 SLOAD AND OR PUSH1 0x2 SSTORE MLOAD PUSH2 0x8D3 SWAP1 DUP2 PUSH2 0x186 DUP3 CODECOPY RETURN JUMPDEST DUP4 MLOAD PUSH3 0x461BCD PUSH1 0xE5 SHL DUP2 MSTORE PUSH1 0x20 PUSH1 0x4 DUP3 ADD MSTORE PUSH1 0x10 PUSH1 0x24 DUP3 ADD MSTORE PUSH16 0x24B73B30B634B2103B32B934B334B2B9 PUSH1 0x81 SHL PUSH1 0x44 DUP3 ADD MSTORE PUSH1 0x64 SWAP1 REVERT JUMPDEST DUP5 MLOAD PUSH3 0x461BCD PUSH1 0xE5 SHL DUP2 MSTORE PUSH1 0x20 PUSH1 0x4 DUP3 ADD MSTORE PUSH1 0xD PUSH1 0x24 DUP3 ADD MSTORE PUSH13 0x24B73B30B634B21030B236B4B7 PUSH1 0x99 SHL PUSH1 0x44 DUP3 ADD MSTORE PUSH1 0x64 SWAP1 REVERT JUMPDEST DUP5 MLOAD PUSH3 0x461BCD PUSH1 0xE5 SHL DUP2 MSTORE PUSH1 0x20 PUSH1 0x4 DUP3 ADD MSTORE PUSH1 0xD PUSH1 0x24 DUP3 ADD MSTORE PUSH13 0x24B73B30B634B21037BBB732B9 PUSH1 0x99 SHL PUSH1 0x44 DUP3 ADD MSTORE PUSH1 0x64 SWAP1 REVERT JUMPDEST PUSH1 0x0 DUP1 REVERT JUMPDEST PUSH4 0x4E487B71 PUSH1 0xE0 SHL PUSH1 0x0 MSTORE PUSH1 0x41 PUSH1 0x4 MSTORE PUSH1 0x24 PUSH1 0x0 REVERT JUMPDEST MLOAD SWAP1 PUSH1 0x1 PUSH1 0x1 PUSH1 0xA0 SHL SUB DUP3 AND DUP3 SUB PUSH2 0x156 JUMPI JUMP INVALID PUSH1 0x80 PUSH1 0x40 MSTORE PUSH1 0x4 CALLDATASIZE LT ISZERO PUSH2 0x1B JUMPI JUMPDEST CALLDATASIZE ISZERO PUSH2 0x19 JUMPI PUSH1 0x0 DUP1 REVERT JUMPDEST STOP JUMPDEST PUSH1 0x0 CALLDATALOAD PUSH1 0xE0 SHR DUP1 PUSH4 0xDE6B208 EQ PUSH2 0x794 JUMPI DUP1 PUSH4 0x13AF4035 EQ PUSH2 0x6E8 JUMPI DUP1 PUSH4 0x2B7AC3F3 EQ PUSH2 0x6BF JUMPI DUP1 PUSH4 0x6717E41C EQ PUSH2 0x68E JUMPI DUP1 PUSH4 0x704B6C02 EQ PUSH2 0x616 JUMPI DUP1 PUSH4 0x8D80C34C EQ PUSH2 0xCF JUMPI DUP1 PUSH4 0x8DA5CB5B EQ PUSH2 0xA6 JUMPI PUSH4 0xF851A440 SUB PUSH2 0xE JUMPI CALLVALUE PUSH2 0xA1 JUMPI PUSH1 0x0 CALLDATASIZE PUSH1 0x3 NOT ADD SLT PUSH2 0xA1 JUMPI PUSH1 0x1 SLOAD PUSH1 0x40 MLOAD PUSH1 0x1 PUSH1 0x1 PUSH1 0xA0 SHL SUB SWAP1 SWAP2 AND DUP2 MSTORE PUSH1 0x20 SWAP1 RETURN JUMPDEST PUSH1 0x0 DUP1 REVERT JUMPDEST CALLVALUE PUSH2 0xA1 JUMPI PUSH1 0x0 CALLDATASIZE PUSH1 0x3 NOT ADD SLT PUSH2 0xA1 JUMPI PUSH1 0x0 SLOAD PUSH1 0x40 MLOAD PUSH1 0x1 PUSH1 0x1 PUSH1 0xA0 SHL SUB SWAP1 SWAP2 AND DUP2 MSTORE PUSH1 0x20 SWAP1 RETURN JUMPDEST CALLVALUE PUSH2 0xA1 JUMPI PUSH2 0x200 CALLDATASIZE PUSH1 0x3 NOT ADD SLT PUSH2 0xA1 JUMPI PUSH2 0xE9 PUSH2 0x7E9 JUMP JUMPDEST PUSH8 0xFFFFFFFFFFFFFFFF PUSH1 0x44 CALLDATALOAD GT PUSH2 0xA1 JUMPI CALLDATASIZE PUSH1 0x23 PUSH1 0x44 CALLDATALOAD ADD SLT ISZERO PUSH2 0xA1 JUMPI PUSH8 0xFFFFFFFFFFFFFFFF PUSH1 0x44 CALLDATALOAD PUSH1 0x4 ADD CALLDATALOAD GT PUSH2 0xA1 JUMPI CALLDATASIZE PUSH1 0x24 PUSH1 0x44 CALLDATALOAD PUSH1 0x4 ADD CALLDATALOAD PUSH1 0x44 CALLDATALOAD ADD ADD GT PUSH2 0xA1 JUMPI CALLDATASIZE PUSH1 0x83 SLT ISZERO PUSH2 0xA1 JUMPI PUSH1 0x40 MLOAD SWAP1 PUSH2 0x146 DUP3 PUSH2 0x7FF JUMP JUMPDEST PUSH1 0xA4 DUP3 CALLDATASIZE DUP3 GT PUSH2 0xA1 JUMPI PUSH1 0x64 SWAP1 JUMPDEST DUP3 DUP3 LT PUSH2 0x606 JUMPI POP POP CALLDATASIZE PUSH1 0xC3 SLT ISZERO PUSH2 0xA1 JUMPI PUSH1 0x40 MLOAD SWAP1 PUSH2 0x173 DUP3 PUSH2 0x7FF JUMP JUMPDEST DUP2 SWAP1 CALLDATASIZE PUSH2 0x124 GT PUSH2 0xA1 JUMPI SWAP1 JUMPDEST PUSH2 0x124 DUP3 LT PUSH2 0x5B5 JUMPI POP POP CALLDATASIZE PUSH2 0x143 SLT ISZERO PUSH2 0xA1 JUMPI PUSH1 0x40 MLOAD SWAP1 PUSH2 0x1A2 DUP3 PUSH2 0x7FF JUMP JUMPDEST DUP2 PUSH2 0x164 SWAP3 CALLDATASIZE DUP5 GT PUSH2 0xA1 JUMPI PUSH2 0x124 SWAP1 JUMPDEST DUP5 DUP3 LT PUSH2 0x5A5 JUMPI POP POP CALLDATASIZE PUSH2 0x183 SLT ISZERO PUSH2 0xA1 JUMPI PUSH1 0x40 MLOAD SWAP3 PUSH1 0xA0 DUP5 ADD DUP5 DUP2 LT PUSH8 0xFFFFFFFFFFFFFFFF DUP3 GT OR PUSH2 0x40A JUMPI PUSH1 0x40 MSTORE DUP4 PUSH2 0x204 SWAP2 CALLDATASIZE DUP4 GT PUSH2 0xA1 JUMPI SWAP1 JUMPDEST DUP3 DUP3 LT PUSH2 0x595 JUMPI POP POP PUSH1 0x2 SLOAD PUSH1 0x40 MLOAD PUSH4 0x34BAEAB9 PUSH1 0xE0 SHL DUP2 MSTORE SWAP7 DUP8 SWAP5 PUSH1 0x1 PUSH1 0x1 PUSH1 0xA0 SHL SUB SWAP1 SWAP3 AND SWAP4 SWAP3 POP PUSH2 0x22A SWAP1 PUSH1 0x4 DUP7 ADD SWAP1 PUSH2 0x875 JUMP JUMPDEST PUSH1 0x0 PUSH1 0x44 DUP6 ADD JUMPDEST PUSH1 0x2 DUP3 LT PUSH2 0x56F JUMPI POP POP POP PUSH2 0x24A SWAP1 PUSH1 0xC4 DUP5 ADD SWAP1 PUSH2 0x875 JUMP JUMPDEST PUSH1 0x0 DUP4 PUSH2 0x104 DUP5 ADD JUMPDEST PUSH1 0x5 DUP4 LT PUSH2 0x555 JUMPI POP POP POP DUP2 PUSH2 0x1A4 PUSH1 0x20 SWAP7 DUP8 SWAP4 GAS STATICCALL SWAP1 DUP2 ISZERO PUSH2 0x549 JUMPI PUSH1 0x0 SWAP2 PUSH2 0x513 JUMPI JUMPDEST POP ISZERO PUSH2 0x4DB JUMPI DUP1 MLOAD PUSH1 0x80 PUSH1 0x60 DUP4 ADD MLOAD SWAP3 ADD MLOAD DUP1 PUSH1 0x0 MSTORE PUSH1 0x4 DUP6 MSTORE PUSH1 0xFF PUSH1 0x40 PUSH1 0x0 KECCAK256 SLOAD AND PUSH2 0x4A1 JUMPI PUSH1 0x0 MSTORE PUSH1 0x4 DUP5 MSTORE PUSH1 0x40 PUSH1 0x0 KECCAK256 PUSH1 0x1 PUSH1 0xFF NOT DUP3 SLOAD AND OR SWAP1 SSTORE PUSH1 0x3 SLOAD EQ PUSH2 0x464 JUMPI PUSH1 0x40 MLOAD SWAP1 DUP4 DUP3 ADD SWAP1 PUSH12 0xFFFFFFFFFFFFFFFFFFFFFFFF NOT DUP5 PUSH1 0x60 SHL AND DUP3 MSTORE PUSH1 0x24 CALLDATALOAD SWAP2 DUP3 PUSH1 0x34 DUP6 ADD MSTORE PUSH1 0x24 PUSH1 0x44 CALLDATALOAD ADD SWAP4 PUSH1 0x44 CALLDATALOAD PUSH1 0x4 ADD CALLDATALOAD DUP6 PUSH1 0x54 DUP4 ADD CALLDATACOPY PUSH2 0x31C PUSH1 0x54 DUP3 PUSH1 0x44 CALLDATALOAD PUSH1 0x4 ADD CALLDATALOAD DUP2 ADD PUSH1 0x0 DUP4 DUP3 ADD MSTORE SUB PUSH1 0x34 DUP2 ADD DUP5 MSTORE ADD DUP3 PUSH2 0x81B JUMP JUMPDEST MLOAD SWAP1 KECCAK256 SUB PUSH2 0x428 JUMPI SWAP2 PUSH1 0x0 SWAP3 SWAP2 DUP4 SWAP3 PUSH1 0x40 MLOAD SWAP2 PUSH1 0x44 CALLDATALOAD PUSH1 0x4 ADD CALLDATALOAD SWAP1 DUP4 CALLDATACOPY DUP2 PUSH1 0x44 CALLDATALOAD PUSH1 0x4 ADD CALLDATALOAD DUP2 ADD DUP6 DUP2 MSTORE SUB SWAP3 GAS CALL RETURNDATASIZE ISZERO PUSH2 0x420 JUMPI RETURNDATASIZE SWAP1 PUSH8 0xFFFFFFFFFFFFFFFF DUP3 GT PUSH2 0x40A JUMPI PUSH1 0x40 MLOAD SWAP2 PUSH2 0x378 PUSH1 0x1F DUP3 ADD PUSH1 0x1F NOT AND DUP6 ADD DUP5 PUSH2 0x81B JUMP JUMPDEST DUP3 MSTORE RETURNDATASIZE PUSH1 0x0 DUP5 DUP5 ADD RETURNDATACOPY JUMPDEST ISZERO PUSH2 0x3D7 JUMPI PUSH1 0x40 MLOAD DUP3 DUP2 SWAP4 DUP3 MSTORE DUP3 MLOAD SWAP1 DUP2 DUP2 DUP5 ADD MSTORE PUSH1 0x0 SWAP4 JUMPDEST DUP3 DUP6 LT PUSH2 0x3BE JUMPI POP POP PUSH1 0x40 SWAP3 POP PUSH1 0x0 DUP4 DUP3 DUP5 ADD ADD MSTORE PUSH1 0x1F DUP1 NOT SWAP2 ADD AND DUP2 ADD SUB ADD SWAP1 RETURN JUMPDEST DUP5 DUP2 ADD DUP3 ADD MLOAD DUP7 DUP7 ADD PUSH1 0x40 ADD MSTORE SWAP4 DUP2 ADD SWAP4 DUP6 SWAP4 POP PUSH2 0x39B JUMP JUMPDEST PUSH1 0x40 MLOAD PUSH3 0x461BCD PUSH1 0xE5 SHL DUP2 MSTORE PUSH1 0x4 DUP2 ADD DUP4 SWAP1 MSTORE PUSH1 0xB PUSH1 0x24 DUP3 ADD MSTORE PUSH11 0x10D85B1B0819985A5B1959 PUSH1 0xAA SHL PUSH1 0x44 DUP3 ADD MSTORE PUSH1 0x64 SWAP1 REVERT JUMPDEST PUSH4 0x4E487B71 PUSH1 0xE0 SHL PUSH1 0x0 MSTORE PUSH1 0x41 PUSH1 0x4 MSTORE PUSH1 0x24 PUSH1 0x0 REVERT JUMPDEST PUSH1 0x60 SWAP1 PUSH2 0x382 JUMP JUMPDEST PUSH1 0x40 MLOAD PUSH3 0x461BCD PUSH1 0xE5 SHL DUP2 MSTORE PUSH1 0x4 DUP2 ADD DUP6 SWAP1 MSTORE PUSH1 0x14 PUSH1 0x24 DUP3 ADD MSTORE PUSH20 0x82C6E8D2DEDC40D0C2E6D040DAD2E6DAC2E8C6D PUSH1 0x63 SHL PUSH1 0x44 DUP3 ADD MSTORE PUSH1 0x64 SWAP1 REVERT JUMPDEST PUSH1 0x40 MLOAD PUSH3 0x461BCD PUSH1 0xE5 SHL DUP2 MSTORE PUSH1 0x4 DUP2 ADD DUP5 SWAP1 MSTORE PUSH1 0x15 PUSH1 0x24 DUP3 ADD MSTORE PUSH21 0x125B9D985B1A59081A185CDA1959081CD958DC995D PUSH1 0x5A SHL PUSH1 0x44 DUP3 ADD MSTORE PUSH1 0x64 SWAP1 REVERT JUMPDEST PUSH1 0x40 MLOAD PUSH3 0x461BCD PUSH1 0xE5 SHL DUP2 MSTORE PUSH1 0x4 DUP2 ADD DUP7 SWAP1 MSTORE PUSH1 0x12 PUSH1 0x24 DUP3 ADD MSTORE PUSH18 0x139BDB98D948185B1C9958591E481D5CD959 PUSH1 0x72 SHL PUSH1 0x44 DUP3 ADD MSTORE PUSH1 0x64 SWAP1 REVERT JUMPDEST PUSH1 0x40 MLOAD PUSH3 0x461BCD PUSH1 0xE5 SHL DUP2 MSTORE PUSH1 0x4 DUP2 ADD DUP5 SWAP1 MSTORE PUSH1 0x10 PUSH1 0x24 DUP3 ADD MSTORE PUSH16 0x24B73B30B634B2102D2590383937B7B3 PUSH1 0x81 SHL PUSH1 0x44 DUP3 ADD MSTORE PUSH1 0x64 SWAP1 REVERT JUMPDEST SWAP1 POP DUP4 DUP2 DUP2 RETURNDATASIZE DUP4 GT PUSH2 0x542 JUMPI JUMPDEST PUSH2 0x52A DUP2 DUP4 PUSH2 0x81B JUMP JUMPDEST DUP2 ADD SUB SLT PUSH2 0xA1 JUMPI MLOAD DUP1 ISZERO ISZERO DUP2 SUB PUSH2 0xA1 JUMPI DUP5 PUSH2 0x278 JUMP JUMPDEST POP RETURNDATASIZE PUSH2 0x520 JUMP JUMPDEST PUSH1 0x40 MLOAD RETURNDATASIZE PUSH1 0x0 DUP3 RETURNDATACOPY RETURNDATASIZE SWAP1 REVERT JUMPDEST DUP2 MLOAD DUP2 MSTORE DUP8 SWAP5 POP PUSH1 0x1 SWAP3 SWAP1 SWAP3 ADD SWAP2 PUSH1 0x20 SWAP2 DUP3 ADD SWAP2 ADD PUSH2 0x253 JUMP JUMPDEST DUP3 SWAP4 SWAP5 SWAP6 POP PUSH1 0x40 DUP2 PUSH2 0x587 PUSH1 0x20 SWAP4 PUSH1 0x1 SWAP6 SWAP7 MLOAD PUSH2 0x875 JUMP JUMPDEST ADD SWAP4 ADD SWAP2 ADD DUP8 SWAP5 SWAP4 SWAP3 PUSH2 0x231 JUMP JUMPDEST DUP2 CALLDATALOAD DUP2 MSTORE PUSH1 0x20 SWAP2 DUP3 ADD SWAP2 ADD PUSH2 0x1F2 JUMP JUMPDEST DUP2 CALLDATALOAD DUP2 MSTORE PUSH1 0x20 SWAP2 DUP3 ADD SWAP2 ADD PUSH2 0x1B3 JUMP JUMPDEST CALLDATASIZE PUSH1 0x1F DUP4 ADD SLT ISZERO PUSH2 0xA1 JUMPI PUSH1 0x40 MLOAD PUSH2 0x5CC DUP2 PUSH2 0x7FF JUMP JUMPDEST DUP1 PUSH1 0x40 DUP5 ADD CALLDATASIZE DUP2 GT PUSH2 0xA1 JUMPI DUP5 SWAP2 JUMPDEST DUP2 DUP4 LT PUSH2 0x5F6 JUMPI POP POP POP DUP2 PUSH1 0x20 SWAP2 PUSH1 0x40 SWAP4 MSTORE ADD SWAP2 ADD SWAP1 PUSH2 0x180 JUMP JUMPDEST DUP3 CALLDATALOAD DUP2 MSTORE PUSH1 0x20 SWAP3 DUP4 ADD SWAP3 ADD PUSH2 0x5DB JUMP JUMPDEST DUP2 CALLDATALOAD DUP2 MSTORE PUSH1 0x20 SWAP2 DUP3 ADD SWAP2 ADD PUSH2 0x154 JUMP JUMPDEST CALLVALUE PUSH2 0xA1 JUMPI PUSH1 0x20 CALLDATASIZE PUSH1 0x3 NOT ADD SLT PUSH2 0xA1 JUMPI PUSH2 0x62F PUSH2 0x7E9 JUMP JUMPDEST PUSH1 0x0 SLOAD PUSH1 0x1 PUSH1 0x1 PUSH1 0xA0 SHL SUB SWAP1 PUSH2 0x648 SWAP1 DUP3 AND CALLER EQ PUSH2 0x83D JUMP JUMPDEST DUP1 PUSH1 0x1 SLOAD SWAP3 AND SWAP2 DUP3 PUSH12 0xFFFFFFFFFFFFFFFFFFFFFFFF PUSH1 0xA0 SHL DUP3 AND OR PUSH1 0x1 SSTORE AND PUSH32 0x7E644D79422F17C01E4894B5F4F588D331EBFA28653D42AE832DC59E38C9798F PUSH1 0x0 DUP1 LOG3 STOP JUMPDEST CALLVALUE PUSH2 0xA1 JUMPI PUSH1 0x20 CALLDATASIZE PUSH1 0x3 NOT ADD SLT PUSH2 0xA1 JUMPI PUSH1 0x4 CALLDATALOAD PUSH1 0x0 MSTORE PUSH1 0x4 PUSH1 0x20 MSTORE PUSH1 0x20 PUSH1 0xFF PUSH1 0x40 PUSH1 0x0 KECCAK256 SLOAD AND PUSH1 0x40 MLOAD SWAP1 ISZERO ISZERO DUP2 MSTORE RETURN JUMPDEST CALLVALUE PUSH2 0xA1 JUMPI PUSH1 0x0 CALLDATASIZE PUSH1 0x3 NOT ADD SLT PUSH2 0xA1 JUMPI PUSH1 0x2 SLOAD PUSH1 0x40 MLOAD PUSH1 0x1 PUSH1 0x1 PUSH1 0xA0 SHL SUB SWAP1 SWAP2 AND DUP2 MSTORE PUSH1 0x20 SWAP1 RETURN JUMPDEST CALLVALUE PUSH2 0xA1 JUMPI PUSH1 0x20 CALLDATASIZE PUSH1 0x3 NOT ADD SLT PUSH2 0xA1 JUMPI PUSH2 0x701 PUSH2 0x7E9 JUMP JUMPDEST PUSH1 0x0 SLOAD SWAP1 PUSH1 0x1 PUSH1 0x1 PUSH1 0xA0 SHL SUB DUP1 DUP4 AND SWAP2 PUSH2 0x71C CALLER DUP5 EQ PUSH2 0x83D JUMP JUMPDEST AND SWAP2 DUP3 ISZERO PUSH2 0x75B JUMPI PUSH1 0x1 PUSH1 0x1 PUSH1 0xA0 SHL SUB NOT AND DUP3 OR PUSH1 0x0 SWAP1 DUP2 SSTORE PUSH32 0xB532073B38C83145E3E5135377A08BF9AAB55BC0FD7C1179CD4FB995D2A5159C SWAP1 DUP1 LOG3 STOP JUMPDEST PUSH1 0x40 MLOAD PUSH3 0x461BCD PUSH1 0xE5 SHL DUP2 MSTORE PUSH1 0x20 PUSH1 0x4 DUP3 ADD MSTORE PUSH1 0x11 PUSH1 0x24 DUP3 ADD MSTORE PUSH17 0x24B73B30B634B2103732BB9037BBB732B9 PUSH1 0x79 SHL PUSH1 0x44 DUP3 ADD MSTORE PUSH1 0x64 SWAP1 REVERT JUMPDEST CALLVALUE PUSH2 0xA1 JUMPI PUSH1 0x20 CALLDATASIZE PUSH1 0x3 NOT ADD SLT PUSH2 0xA1 JUMPI PUSH1 0x4 CALLDATALOAD PUSH2 0x7BD PUSH1 0x1 DUP1 PUSH1 0xA0 SHL SUB PUSH1 0x0 SLOAD AND CALLER EQ PUSH2 0x83D JUMP JUMPDEST DUP1 PUSH1 0x3 SSTORE DUP1 PUSH32 0x5EC3E21B18A81BDD0AE6A71042F3769F130C447E557FDD94D45AC42AD537A773 PUSH1 0x0 DUP1 LOG3 STOP JUMPDEST PUSH1 0x4 CALLDATALOAD SWAP1 PUSH1 0x1 PUSH1 0x1 PUSH1 0xA0 SHL SUB DUP3 AND DUP3 SUB PUSH2 0xA1 JUMPI JUMP JUMPDEST PUSH1 0x40 DUP2 ADD SWAP1 DUP2 LT PUSH8 0xFFFFFFFFFFFFFFFF DUP3 GT OR PUSH2 0x40A JUMPI PUSH1 0x40 MSTORE JUMP JUMPDEST SWAP1 PUSH1 0x1F DUP1 NOT SWAP2 ADD AND DUP2 ADD SWAP1 DUP2 LT PUSH8 0xFFFFFFFFFFFFFFFF DUP3 GT OR PUSH2 0x40A JUMPI PUSH1 0x40 MSTORE JUMP JUMPDEST ISZERO PUSH2 0x844 JUMPI JUMP JUMPDEST PUSH1 0x40 MLOAD PUSH3 0x461BCD PUSH1 0xE5 SHL DUP2 MSTORE PUSH1 0x20 PUSH1 0x4 DUP3 ADD MSTORE PUSH1 0x9 PUSH1 0x24 DUP3 ADD MSTORE PUSH9 0x2737BA1037BBB732B9 PUSH1 0xB9 SHL PUSH1 0x44 DUP3 ADD MSTORE PUSH1 0x64 SWAP1 REVERT JUMPDEST PUSH1 0x0 SWAP2 JUMPDEST PUSH1 0x2 DUP4 LT PUSH2 0x886 JUMPI POP POP POP JUMP JUMPDEST PUSH1 0x1 SWAP1 DUP3 MLOAD DUP2 MSTORE PUSH1 0x20 DUP1 SWAP2 ADD SWAP3 ADD SWAP3 ADD SWAP2 SWAP1 PUSH2 0x879 JUMP INVALID LOG2 PUSH5 0x6970667358 0x22 SLT KECCAK256 GAS PUSH2 0x50FC 0xC5 0x25 SWAP13 NUMBER MULMOD PUSH14 0x4806C1E4B2F0AA524C578AF6CBE3 0xDA MUL DUP5 EXTCODECOPY PUSH32 0x627CFB64736F6C63430008110033000000000000000000000000000000000000 "},"methodIdentifiers":{"admin()":"f851a440","execute(address,uint256,bytes,uint256[2],uint256[2][2],uint256[2],uint256[5])":"8d80c34c","owner()":"8da5cb5b","setAdmin(address)":"704b6c02","setHashedSecretConfig(uint256)":"0de6b208","setOwner(address)":"13af4035","usedNonces(uint256)":"6717e41c","verifier()":"2b7ac3f3"}}}}}