{"contracts/VerifierMock.sol":{"VerifierMock":{"abi":[{"inputs":[{"internalType":"bool","name":"_value","type":"bool"}],"name":"setShouldVerify","outputs":[],"stateMutability":"nonpayable","type":"function"},{"inputs":[],"name":"shouldVerify","outputs":[{"internalType":"bool","name":"","type":"bool"}],"stateMutability":"view","type":"function"},{"inputs":[{"internalType":"uint256[2]","name":"","type":"uint256[2]"},{"internalType":"uint256[2][2]","name":"","type":"uint256[2][2]"},{"internalType":"uint256[2]","name":"","type":"uint256[2]"},{"internalType":"uint256[5]","name":"","type":"uint256[5]"}],"name":"verifyProof","outputs":[{"internalType":"bool","name":"","type":"bool"}],"stateMutability":"view","type":"function"}],"evm":{"bytecode":{"linkReferences":{},"object":"6080806040523461002357600160ff19600054161760005561027890816100298239f35b600080fdfe60806040818152600436101561001457600080fd5b600091823560e01c9081630a79726a146101ed575080630c54fb06146101bf576334baeab91461004357600080fd5b346101bb576101a03660031901126101bb5736602312156101bb5761006661020c565b916044923684116101bb576004905b8482106101ab575050366063121561013f5761008f61020c565b60c49336851161012757905b8482106101525750503660e3121561013f576100b561020c565b6101049336851161012757905b84821061014257505036610123121561013f57815160a0810181811067ffffffffffffffff82111761012b5783526101a49036821161012757602094905b8282106101185750505060ff90541690519015158152f35b81358152908501908501610100565b8280fd5b634e487b7160e01b83526041600452602483fd5b80fd5b81358152602091820191016100c2565b36601f830112156101275761016561020c565b808584013681116101a75791869285949294905b8082106101915750508152920191602001905061009b565b8135865260209586019589955090910190610179565b8580fd5b8135815260209182019101610075565b5080fd5b823461013f57602036600319011261013f576004358015158091036101bb5760ff8019835416911617815580f35b8390346101bb57816003193601126101bb5760ff602092541615158152f35b604051906040820182811067ffffffffffffffff82111761022c57604052565b634e487b7160e01b600052604160045260246000fdfea2646970667358221220eec2701bae5541df8c31bc923690b6182a63248c64aad27f1ece478b825f327564736f6c63430008110033","opcodes":"PUSH1 0x80 DUP1 PUSH1 0x40 MSTORE CALLVALUE PUSH2 0x23 JUMPI PUSH1 0x1 PUSH1 0xFF NOT PUSH1 0x0 SLOAD AND OR PUSH1 0x0 SSTORE PUSH2 0x278 SWAP1 DUP2 PUSH2 0x29 DUP3 CODECOPY RETURN JUMPDEST PUSH1 0x0 DUP1 REVERT INVALID PUSH1 0x80 PUSH1 0x40 DUP2 DUP2 MSTORE PUSH1 0x4 CALLDATASIZE LT ISZERO PUSH2 0x14 JUMPI PUSH1 0x0 DUP1 REVERT JUMPDEST PUSH1 0x0 SWAP2 DUP3 CALLDATALOAD PUSH1 0xE0 SHR SWAP1 DUP2 PUSH4 0xA79726A EQ PUSH2 0x1ED JUMPI POP DUP1 PUSH4 0xC54FB06 EQ PUSH2 0x1BF JUMPI PUSH4 0x34BAEAB9 EQ PUSH2 0x43 JUMPI PUSH1 0x0 DUP1 REVERT JUMPDEST CALLVALUE PUSH2 0x1BB JUMPI PUSH2 0x1A0 CALLDATASIZE PUSH1 0x3 NOT ADD SLT PUSH2 0x1BB JUMPI CALLDATASIZE PUSH1 0x23 SLT ISZERO PUSH2 0x1BB JUMPI PUSH2 0x66 PUSH2 0x20C JUMP JUMPDEST SWAP2 PUSH1 0x44 SWAP3 CALLDATASIZE DUP5 GT PUSH2 0x1BB JUMPI PUSH1 0x4 SWAP1 JUMPDEST DUP5 DUP3 LT PUSH2 0x1AB JUMPI POP POP CALLDATASIZE PUSH1 0x63 SLT ISZERO PUSH2 0x13F JUMPI PUSH2 0x8F PUSH2 0x20C JUMP JUMPDEST PUSH1 0xC4 SWAP4 CALLDATASIZE DUP6 GT PUSH2 0x127 JUMPI SWAP1 JUMPDEST DUP5 DUP3 LT PUSH2 0x152 JUMPI POP POP CALLDATASIZE PUSH1 0xE3 SLT ISZERO PUSH2 0x13F JUMPI PUSH2 0xB5 PUSH2 0x20C JUMP JUMPDEST PUSH2 0x104 SWAP4 CALLDATASIZE DUP6 GT PUSH2 0x127 JUMPI SWAP1 JUMPDEST DUP5 DUP3 LT PUSH2 0x142 JUMPI POP POP CALLDATASIZE PUSH2 0x123 SLT ISZERO PUSH2 0x13F JUMPI DUP2 MLOAD PUSH1 0xA0 DUP2 ADD DUP2 DUP2 LT PUSH8 0xFFFFFFFFFFFFFFFF DUP3 GT OR PUSH2 0x12B JUMPI DUP4 MSTORE PUSH2 0x1A4 SWAP1 CALLDATASIZE DUP3 GT PUSH2 0x127 JUMPI PUSH1 0x20 SWAP5 SWAP1 JUMPDEST DUP3 DUP3 LT PUSH2 0x118 JUMPI POP POP POP PUSH1 0xFF SWAP1 SLOAD AND SWAP1 MLOAD SWAP1 ISZERO ISZERO DUP2 MSTORE RETURN JUMPDEST DUP2 CALLDATALOAD DUP2 MSTORE SWAP1 DUP6 ADD SWAP1 DUP6 ADD PUSH2 0x100 JUMP JUMPDEST DUP3 DUP1 REVERT JUMPDEST PUSH4 0x4E487B71 PUSH1 0xE0 SHL DUP4 MSTORE PUSH1 0x41 PUSH1 0x4 MSTORE PUSH1 0x24 DUP4 REVERT JUMPDEST DUP1 REVERT JUMPDEST DUP2 CALLDATALOAD DUP2 MSTORE PUSH1 0x20 SWAP2 DUP3 ADD SWAP2 ADD PUSH2 0xC2 JUMP JUMPDEST CALLDATASIZE PUSH1 0x1F DUP4 ADD SLT ISZERO PUSH2 0x127 JUMPI PUSH2 0x165 PUSH2 0x20C JUMP JUMPDEST DUP1 DUP6 DUP5 ADD CALLDATASIZE DUP2 GT PUSH2 0x1A7 JUMPI SWAP2 DUP7 SWAP3 DUP6 SWAP5 SWAP3 SWAP5 SWAP1 JUMPDEST DUP1 DUP3 LT PUSH2 0x191 JUMPI POP POP DUP2 MSTORE SWAP3 ADD SWAP2 PUSH1 0x20 ADD SWAP1 POP PUSH2 0x9B JUMP JUMPDEST DUP2 CALLDATALOAD DUP7 MSTORE PUSH1 0x20 SWAP6 DUP7 ADD SWAP6 DUP10 SWAP6 POP SWAP1 SWAP2 ADD SWAP1 PUSH2 0x179 JUMP JUMPDEST DUP6 DUP1 REVERT JUMPDEST DUP2 CALLDATALOAD DUP2 MSTORE PUSH1 0x20 SWAP2 DUP3 ADD SWAP2 ADD PUSH2 0x75 JUMP JUMPDEST POP DUP1 REVERT JUMPDEST DUP3 CALLVALUE PUSH2 0x13F JUMPI PUSH1 0x20 CALLDATASIZE PUSH1 0x3 NOT ADD SLT PUSH2 0x13F JUMPI PUSH1 0x4 CALLDATALOAD DUP1 ISZERO ISZERO DUP1 SWAP2 SUB PUSH2 0x1BB JUMPI PUSH1 0xFF DUP1 NOT DUP4 SLOAD AND SWAP2 AND OR DUP2 SSTORE DUP1 RETURN JUMPDEST DUP4 SWAP1 CALLVALUE PUSH2 0x1BB JUMPI DUP2 PUSH1 0x3 NOT CALLDATASIZE ADD SLT PUSH2 0x1BB JUMPI PUSH1 0xFF PUSH1 0x20 SWAP3 SLOAD AND ISZERO ISZERO DUP2 MSTORE RETURN JUMPDEST PUSH1 0x40 MLOAD SWAP1 PUSH1 0x40 DUP3 ADD DUP3 DUP2 LT PUSH8 0xFFFFFFFFFFFFFFFF DUP3 GT OR PUSH2 0x22C JUMPI PUSH1 0x40 MSTORE JUMP JUMPDEST PUSH4 0x4E487B71 PUSH1 0xE0 SHL PUSH1 0x0 MSTORE PUSH1 0x41 PUSH1 0x4 MSTORE PUSH1 0x24 PUSH1 0x0 REVERT INVALID LOG2 PUSH5 0x6970667358 0x22 SLT KECCAK256 0xEE 0xC2 PUSH17 0x1BAE5541DF8C31BC923690B6182A63248C PUSH5 0xAAD27F1ECE SELFBALANCE DUP12 DUP3 0x5F ORIGIN PUSH22 0x64736F6C634300081100330000000000000000000000 "},"methodIdentifiers":{"setShouldVerify(bool)":"0c54fb06","shouldVerify()":"0a79726a","verifyProof(uint256[2],uint256[2][2],uint256[2],uint256[5])":"34baeab9"}}}}}