{
  "_format": "hh-sol-artifact-1",
  "contractName": "VerifierMock",
  "sourceName": "contracts/VerifierMock.sol",
  "abi": [
    {
      "inputs": [
        {
          "internalType": "bool",
          "name": "_value",
          "type": "bool"
        }
      ],
      "name": "setShouldVerify",
      "outputs": [],
      "stateMutability": "nonpayable",
      "type": "function"
    },
    {
      "inputs": [],
      "name": "shouldVerify",
      "outputs": [
        {
          "internalType": "bool",
          "name": "",
          "type": "bool"
        }
      ],
      "stateMutability": "view",
      "type": "function"
    },
    {
      "inputs": [
        {
          "internalType": "uint256[2]",
          "name": "",
          "type": "uint256[2]"
        },
        {
          "internalType": "uint256[2][2]",
          "name": "",
          "type": "uint256[2][2]"
        },
        {
          "internalType": "uint256[2]",
          "name": "",
          "type": "uint256[2]"
        },
        {
          "internalType": "uint256[5]",
          "name": "",
          "type": "uint256[5]"
        }
      ],
      "name": "verifyProof",
      "outputs": [
        {
          "internalType": "bool",
          "name": "",
          "type": "bool"
        }
      ],
      "stateMutability": "view",
      "type": "function"
    }
  ],
  "bytecode": "0x6080806040523461002357600160ff19600054161760005561027890816100298239f35b600080fdfe60806040818152600436101561001457600080fd5b600091823560e01c9081630a79726a146101ed575080630c54fb06146101bf576334baeab91461004357600080fd5b346101bb576101a03660031901126101bb5736602312156101bb5761006661020c565b916044923684116101bb576004905b8482106101ab575050366063121561013f5761008f61020c565b60c49336851161012757905b8482106101525750503660e3121561013f576100b561020c565b6101049336851161012757905b84821061014257505036610123121561013f57815160a0810181811067ffffffffffffffff82111761012b5783526101a49036821161012757602094905b8282106101185750505060ff90541690519015158152f35b81358152908501908501610100565b8280fd5b634e487b7160e01b83526041600452602483fd5b80fd5b81358152602091820191016100c2565b36601f830112156101275761016561020c565b808584013681116101a75791869285949294905b8082106101915750508152920191602001905061009b565b8135865260209586019589955090910190610179565b8580fd5b8135815260209182019101610075565b5080fd5b823461013f57602036600319011261013f576004358015158091036101bb5760ff8019835416911617815580f35b8390346101bb57816003193601126101bb5760ff602092541615158152f35b604051906040820182811067ffffffffffffffff82111761022c57604052565b634e487b7160e01b600052604160045260246000fdfea2646970667358221220eec2701bae5541df8c31bc923690b6182a63248c64aad27f1ece478b825f327564736f6c63430008110033",
  "linkReferences": {},
  "deployedLinkReferences": {}
}