{
  "_format": "hh-sol-artifact-1",
  "contractName": "zkOTPWallet",
  "sourceName": "contracts/zkOTPWallet.sol",
  "abi": [
    {
      "inputs": [
        {
          "internalType": "address",
          "name": "_owner",
          "type": "address"
        },
        {
          "internalType": "address",
          "name": "_admin",
          "type": "address"
        },
        {
          "internalType": "address",
          "name": "_verifier",
          "type": "address"
        }
      ],
      "stateMutability": "nonpayable",
      "type": "constructor"
    },
    {
      "anonymous": false,
      "inputs": [
        {
          "indexed": true,
          "internalType": "address",
          "name": "oldAdmin",
          "type": "address"
        },
        {
          "indexed": true,
          "internalType": "address",
          "name": "newAdmin",
          "type": "address"
        }
      ],
      "name": "AdminChanged",
      "type": "event"
    },
    {
      "anonymous": false,
      "inputs": [
        {
          "indexed": true,
          "internalType": "uint256",
          "name": "oldHashedSecretConfig",
          "type": "uint256"
        },
        {
          "indexed": true,
          "internalType": "uint256",
          "name": "newHashedSecretConfig",
          "type": "uint256"
        }
      ],
      "name": "HashedSecretConfigChanged",
      "type": "event"
    },
    {
      "anonymous": false,
      "inputs": [
        {
          "indexed": true,
          "internalType": "address",
          "name": "oldOwner",
          "type": "address"
        },
        {
          "indexed": true,
          "internalType": "address",
          "name": "newOwner",
          "type": "address"
        }
      ],
      "name": "OwnerChanged",
      "type": "event"
    },
    {
      "inputs": [],
      "name": "admin",
      "outputs": [
        {
          "internalType": "address",
          "name": "",
          "type": "address"
        }
      ],
      "stateMutability": "view",
      "type": "function"
    },
    {
      "inputs": [
        {
          "internalType": "address",
          "name": "_to",
          "type": "address"
        },
        {
          "internalType": "uint256",
          "name": "_value",
          "type": "uint256"
        },
        {
          "internalType": "bytes",
          "name": "_data",
          "type": "bytes"
        },
        {
          "internalType": "uint256[2]",
          "name": "a",
          "type": "uint256[2]"
        },
        {
          "internalType": "uint256[2][2]",
          "name": "b",
          "type": "uint256[2][2]"
        },
        {
          "internalType": "uint256[2]",
          "name": "c",
          "type": "uint256[2]"
        },
        {
          "internalType": "uint256[5]",
          "name": "input",
          "type": "uint256[5]"
        }
      ],
      "name": "execute",
      "outputs": [
        {
          "internalType": "bytes",
          "name": "",
          "type": "bytes"
        }
      ],
      "stateMutability": "nonpayable",
      "type": "function"
    },
    {
      "inputs": [],
      "name": "owner",
      "outputs": [
        {
          "internalType": "address",
          "name": "",
          "type": "address"
        }
      ],
      "stateMutability": "view",
      "type": "function"
    },
    {
      "inputs": [
        {
          "internalType": "address",
          "name": "_newAdmin",
          "type": "address"
        }
      ],
      "name": "setAdmin",
      "outputs": [],
      "stateMutability": "nonpayable",
      "type": "function"
    },
    {
      "inputs": [
        {
          "internalType": "uint256",
          "name": "_hashedSecret",
          "type": "uint256"
        }
      ],
      "name": "setHashedSecretConfig",
      "outputs": [],
      "stateMutability": "nonpayable",
      "type": "function"
    },
    {
      "inputs": [
        {
          "internalType": "address",
          "name": "_newOwner",
          "type": "address"
        }
      ],
      "name": "setOwner",
      "outputs": [],
      "stateMutability": "nonpayable",
      "type": "function"
    },
    {
      "inputs": [
        {
          "internalType": "uint256",
          "name": "",
          "type": "uint256"
        }
      ],
      "name": "usedNonces",
      "outputs": [
        {
          "internalType": "bool",
          "name": "",
          "type": "bool"
        }
      ],
      "stateMutability": "view",
      "type": "function"
    },
    {
      "inputs": [],
      "name": "verifier",
      "outputs": [
        {
          "internalType": "contract IVerifier",
          "name": "",
          "type": "address"
        }
      ],
      "stateMutability": "view",
      "type": "function"
    },
    {
      "stateMutability": "payable",
      "type": "receive"
    }
  ],
  "bytecode": "0x60803461015657601f610a5938819003918201601f191683019291906001600160401b0384118385101761015b5781606092849260409687528339810103126101565761004b81610171565b906100638361005c60208401610171565b9201610171565b916001600160a01b039081169182156101225781169283156100ee57169182156100b75760018060a01b0319918260005416176000558160015416176001556002541617600255516108d390816101868239f35b835162461bcd60e51b815260206004820152601060248201526f24b73b30b634b2103b32b934b334b2b960811b6044820152606490fd5b845162461bcd60e51b815260206004820152600d60248201526c24b73b30b634b21030b236b4b760991b6044820152606490fd5b845162461bcd60e51b815260206004820152600d60248201526c24b73b30b634b21037bbb732b960991b6044820152606490fd5b600080fd5b634e487b7160e01b600052604160045260246000fd5b51906001600160a01b03821682036101565756fe6080604052600436101561001b575b361561001957600080fd5b005b60003560e01c80630de6b2081461079457806313af4035146106e85780632b7ac3f3146106bf5780636717e41c1461068e578063704b6c02146106165780638d80c34c146100cf5780638da5cb5b146100a65763f851a4400361000e57346100a15760003660031901126100a1576001546040516001600160a01b039091168152602090f35b600080fd5b346100a15760003660031901126100a1576000546040516001600160a01b039091168152602090f35b346100a1576102003660031901126100a1576100e96107e9565b67ffffffffffffffff604435116100a1573660236044350112156100a15767ffffffffffffffff60443560040135116100a157366024604435600401356044350101116100a15736608312156100a15760405190610146826107ff565b60a4823682116100a1576064905b8282106106065750503660c312156100a15760405190610173826107ff565b819036610124116100a157905b61012482106105b55750503661014312156100a157604051906101a2826107ff565b81610164923684116100a157610124905b8482106105a55750503661018312156100a1576040519260a0840184811067ffffffffffffffff82111761040a5760405283610204913683116100a157905b8282106105955750506002546040516334baeab960e01b81529687946001600160a01b0390921693925061022a906004860190610875565b6000604485015b6002821061056f5750505061024a9060c4840190610875565b60008361010484015b6005831061055557505050816101a460209687935afa90811561054957600091610513575b50156104db57805160806060830151920151806000526004855260ff604060002054166104a157600052600484526040600020600160ff19825416179055600354146104645760405190838201906bffffffffffffffffffffffff198460601b16825260243591826034850152602460443501936044356004013585605483013761031c60548260443560040135810160008382015203603481018452018261081b565b51902003610428579160009291839260405191604435600401359083378160443560040135810185815203925af13d15610420573d9067ffffffffffffffff821161040a5760405191610378601f8201601f191685018461081b565b82523d60008484013e5b156103d757604051828193825282519081818401526000935b8285106103be575050604092506000838284010152601f80199101168101030190f35b848101820151868601604001529381019385935061039b565b60405162461bcd60e51b815260048101839052600b60248201526a10d85b1b0819985a5b195960aa1b6044820152606490fd5b634e487b7160e01b600052604160045260246000fd5b606090610382565b60405162461bcd60e51b8152600481018590526014602482015273082c6e8d2dedc40d0c2e6d040dad2e6dac2e8c6d60631b6044820152606490fd5b60405162461bcd60e51b8152600481018490526015602482015274125b9d985b1a59081a185cda1959081cd958dc995d605a1b6044820152606490fd5b60405162461bcd60e51b8152600481018690526012602482015271139bdb98d948185b1c9958591e481d5cd95960721b6044820152606490fd5b60405162461bcd60e51b815260048101849052601060248201526f24b73b30b634b2102d2590383937b7b360811b6044820152606490fd5b90508381813d8311610542575b61052a818361081b565b810103126100a1575180151581036100a15784610278565b503d610520565b6040513d6000823e3d90fd5b815181528794506001929092019160209182019101610253565b82939495506040816105876020936001959651610875565b019301910187949392610231565b81358152602091820191016101f2565b81358152602091820191016101b3565b36601f830112156100a1576040516105cc816107ff565b80604084013681116100a15784915b8183106105f657505050816020916040935201910190610180565b82358152602092830192016105db565b8135815260209182019101610154565b346100a15760203660031901126100a15761062f6107e9565b6000546001600160a01b0390610648908216331461083d565b80600154921691826bffffffffffffffffffffffff60a01b821617600155167f7e644d79422f17c01e4894b5f4f588d331ebfa28653d42ae832dc59e38c9798f600080a3005b346100a15760203660031901126100a1576004356000526004602052602060ff604060002054166040519015158152f35b346100a15760003660031901126100a1576002546040516001600160a01b039091168152602090f35b346100a15760203660031901126100a1576107016107e9565b600054906001600160a01b038083169161071c33841461083d565b1691821561075b576001600160a01b031916821760009081557fb532073b38c83145e3e5135377a08bf9aab55bc0fd7c1179cd4fb995d2a5159c9080a3005b60405162461bcd60e51b815260206004820152601160248201527024b73b30b634b2103732bb9037bbb732b960791b6044820152606490fd5b346100a15760203660031901126100a1576004356107bd60018060a01b0360005416331461083d565b80600355807f5ec3e21b18a81bdd0ae6a71042f3769f130c447e557fdd94d45ac42ad537a773600080a3005b600435906001600160a01b03821682036100a157565b6040810190811067ffffffffffffffff82111761040a57604052565b90601f8019910116810190811067ffffffffffffffff82111761040a57604052565b1561084457565b60405162461bcd60e51b81526020600482015260096024820152682737ba1037bbb732b960b91b6044820152606490fd5b6000915b6002831061088657505050565b60019082518152602080910192019201919061087956fea26469706673582212205a6150fcc5259c43096d4806c1e4b2f0aa524c578af6cbe3da02843c7f627cfb64736f6c63430008110033",
  "linkReferences": {},
  "deployedLinkReferences": {}
}